:020000040800F2
:1000000060080020010100087D0C0008150C0008A4
:10001000790C0008D10900083D2300080000000009
:10002000000000000000000000000000E9150008CA
:10003000D509000800000000D1140008C518000808
:100040001B0100081B0100081B0100081B01000820
:100050001B0100081B0100081B0100081B01000810
:100060001B0100081B0100081B0100081B01000800
:100070001B0100081B0100081B0100081B010008F0
:100080001B0100081B0100081B0100081B010008E0
:100090001B0100081B0100081B0100081B010008D0
:1000A0001B0100081B0100081B0100081B010008C0
:1000B000291900081B0100081B0100081B0100088A
:1000C0001B0100081B0100081B0100081B010008A0
:1000D0001B010008B11D0008991E0008D51F00086B
:1000E0001B0100081B0100081B010008DFF80CD0F1
:1000F00000F026FC00480047E92D000860080020B9
:100100000648804706480047FEE7FEE7FEE7FEE7B1
:10011000FEE7FEE7FEE7FEE7FEE7FEE7C918000898
:10012000ED0000080649074A0868504343F23902C7
:10013000104408604008704701490860704700009B
:100140005C0000206D4EC64140EA01039B0703D0CE
:1001500009E008C9121F08C0042AFAD203E011F806
:10016000013B00F8013B521EF9D27047421C10F8C7
:10017000011B0029FBD1801A704710B5002200E056
:10018000521C835C8C5CA34201D1002BF8D1D8B205
:10019000E1B2401A10BDF0B480EA0102D40F42006F
:1001A000B2EB410F02D20246084611464A0042D045
:1001B000C30DDDB2C1F3C752AD1A202D35DAC1F33C
:1001C000160141F4000204B15242C5F1200602FAC0
:1001D00006F12A411044B3EBD05F23D0C4B1012D06
:1001E000A0EBC35009DCF0BC4FF0004202EAC3525E
:1001F000DBB200F5000000F000BB400000F18070B1
:1002000000EBC350A0F1807040EAD170490009E0D2
:10021000490841EAC071A0EBC35000F50000400856
:1002200000EBC350F0BC00F0DFBA6142012202EBE8
:100230004101001BF6E7F0BC704781F00041AAE7DE
:1002400080F00040A7E780EA010210B502F0004309
:10025000400022D04A001FD0010E01EB1261C0F312
:100260005600C2F3560240F4000042F40002A0FB24
:10027000022000047F39140400D0401C50EA1240D0
:1002800001D44000491EC2B20C0604EBD010401C41
:100290004008802A02D003E0002010BD20F00100B9
:1002A000002900DA0020184310BD30B480EA0102B2
:1002B00002F0004530F0004221F0004013D090B130
:1002C000C30DD40DC2F31601C0F31600E41A41F4B5
:1002D000000140F400027D34914201D3641C00E02F
:1002E0004900002C02DA30BC002070474FF40000B7
:1002F0000023914201D3891A034340084FEA410188
:10030000F7D151B1914202D14FF0004105E002D244
:100310004FF0010101E06FF0010103EBC4502844EC
:1003200030BC00F061BA2DE9FE4F804681EA03003F
:10033000C00F0C46009021F0004123F00045B8EBBF
:100340000200A94105D24046214690461C460B4674
:10035000024623F00040104347D0270DC7F30A00A0
:10036000C3F30A510290401A019040286BDAC3F39C
:10037000130040F4801B0098924620B10023D2EB7A
:10038000030A63EB0B0B01985946C0F1400250463B
:1003900000F0F9F906460D4650465946019A00F01C
:1003A00011FA10EB08006141002487EA115284EA37
:1003B000E7731A4340D0009A62B3019A012A4FEAC8
:1003C000075215DC001B61EB02014FF0004202EA0C
:1003D0000752CDE90042001C41F5801132462B4600
:1003E00000F048FA03B0BDE8F08F40462146F9E737
:1003F000001B61EB0201001C41F5801300185B41FA
:100400002018A2F5001747EB030140EAD570B61992
:100410006D4111E06D084FEA360645EAC0754FEAB6
:100420000752001B61EB0201001C41F580114908D5
:100430004FEA30000019514132462B4603B0BDE867
:10044000F04F00F008BA0098012240000023D0EBE2
:10045000020263EBE073009821464FEAE074B8EBC8
:10046000000061EB0401E9E783F000435BE781F002
:10047000004158E72DE9FE4F81EA030404F00044EF
:1004800021F0004100944FF0000B23F0004350EAAC
:1004900001045ED052EA03045BD0C3F30A54C1F3F3
:1004A0000A552C44A4F2F3340194A0FB0254C1F386
:1004B000130141F48011C3F3130343F4801301FBD0
:1004C000024400FB034E840A970A44EA815447EA37
:1004D0008357A4FB076802958D0A05FB07854FEA41
:1004E000932C04FB0C542705029D4FEA065847EA5B
:1004F0001637B5EB08056EEB070C870E920E47EA30
:10050000811742EA8312A7FB0201B6EB0B0164EBF1
:1005100000042B0D43EA0C335E1844EB1C50DA4602
:100520005146E7FB0201C5F313044FEA0B3343EADC
:1005300014534FEA0432019C43EA0603A4F10C046D
:100540000294009CCDE900B400F094F903B0BDE83A
:10055000F08F00200146F9E72DE9F04D81EA030410
:1005600004F0004B21F0004514464FF0000A23F040
:10057000004150EA050220D054EA01021DD0C5F323
:100580000A570246C5F31303C1F31300C1F30A5619
:1005900040F4801543F48013A7EB0608101BD646E1
:1005A00008F2FD3873EB050002D308F1010801E001
:1005B00092185B41B8F1000F03DA00200146BDE854
:1005C000F08D00204FF48011064684460EE0171B84
:1005D00073EB050705D3121B63EB050306434CEAD7
:1005E000010C49084FEA300092185B4150EA0107BC
:1005F000EDD152EA030012D082EA040083EA050139
:10060000084305D0101BAB4106D20122002306E0AF
:1006100000224FF0004302E06FF0010253101AEB8A
:1006200006004CEB085110EB0A0041EB0B01BDE852
:10063000F04D00F010B9C10F80EAE0700844CA071D
:100640009623002100F0D9B896230022114600F02D
:10065000D4B80EB540F2334102910021CDE900112A
:100660000A460B4600F006F903B000BD20F000403A
:10067000C10DC0F3160040F400007F2901DA00200C
:100680007047962903DCC1F19601C840704796393E
:1006900088407047C1F30A5210B5C1F3130140F20C
:1006A000FF3341F480119A4201DA002010BD40F27C
:1006B00033439A42A2F2334203DC524200F072F812
:1006C00010BD904010BD000030B5041E71F1000453
:1006D00004DB4FF00044404264EB0101141E73F14F
:1006E000000405DB1C464FF00043524263EB040359
:1006F000994208BF904230BD30B50B4601460020FC
:100700002022012409E021FA02F59D4205D303FAD3
:1007100002F5491B04FA02F52844151EA2F1010254
:10072000F1DC30BD2DE9F05F0546002092469B4686
:1007300088460646814640241BE0284641464746F7
:10074000224600F02FF853465A46C01A914110D362
:1007500011461846224600F016F82D1A67EB0108DC
:100760004F4622460120002100F00DF817EB00094A
:100770004E41201EA4F10104DFDC484631462A46E2
:100780004346BDE8F09F202A04DB203A00FA02F13C
:10079000002070479140C2F1200320FA03F319436F
:1007A00090407047202A04DB203A21FA02F0002111
:1007B000704721FA02F3D040C2F120029140084371
:1007C00019467047202A06DBCB17203A41FA02F07F
:1007D00043EAE07306E041FA02F3D040C2F120029E
:1007E00091400843194670470029A8BF7047401C34
:1007F000490008BF20F00100704710B4B0FA80FC37
:1008000000FA0CF050EA010404BF10BC704749B173
:10081000CCF1200421FA04F411FA0CF118BF0121E3
:1008200021430843A3EB0C01CB1D4FEA00614FEAC3
:10083000102042BF002010BC704700EBC350104492
:100840000029A4BF10BC7047401C490008BF20F01D
:10085000010010BC704710B5141E73F1000408DAD3
:10086000401C41F1000192185B411A4301D120F074
:10087000010010BD2DE9F04D92469B4611B1B1FA31
:1008800081F202E0B0FA80F220329046FFF77BFF5F
:1008900004460F4640EA0A0041EA0B0153465A4615
:1008A000084313D0114653EA010019D0C8F14002A1
:1008B0005046FFF777FF05460E46504659464246DA
:1008C000FFF761FF084305D0012004E020463946C8
:1008D000BDE8F08D0020054346EAE0762C4337431F
:1008E0000A986305E40AA0EB08000022FD0A44EA26
:1008F00047540A3002D500200146E9E701051019E6
:100900006941DDE9084500196941BDE8F04DA2E7FC
:10091000C1F30A52C1F3130140F2FF3341F48011D5
:100920009A4202DA00200146704740F233439A426D
:10093000A2F2334202DC5242FFF734BFFFF723BF7B
:10094000064C074D06E0E06840F0010394E807001C
:1009500098471034AC42F6D3FFF7CCFB608B00080D
:10096000808B000810B501F087FC174908800A2029
:1009700000F031F8144800880F2807DB03F064FD0D
:1009800012480068401C114908601CE001F074FC2A
:100990000D49088012E000200C49086003F056FE63
:1009A00003F054FE0A2000F016F801F065FC064939
:1009B0000880084600880F2800DD03E00248008810
:1009C0000F28E8DB00BF10BD3A0000202C000020FB
:1009D00000BFFEE7704700B5034603E04FF47A70AE
:1009E00000F011F8181EA3F10103F7D100BD10B5F6
:1009F000044603E04FF47A70FFF7EDFF201EA4F1E8
:100A00000104F7D110BD00EBC001C9004FF0E02296
:100A10005161002191610521116100BF4FF0E0217A
:100A2000096901F480310029F8D004214FF0E02257
:100A30001161704710B502F005F91F49087002F006
:100A40000BF91E49087002F00FF91D49087002F0F9
:100A500015F91C49087018480078012804D103F0E2
:100A600003FC00201449087014480078012804D1C0
:100A700003F0EAFC002011490870114800780128B1
:100A80000AD103F015FE03F0DFFC03F011FE03F0C2
:100A9000DBFC00200A4908700A48007801280AD1C6
:100AA00003F0A6FD03F0D0FC03F0A2FD03F0CCFCA4
:100AB00000200449087010BD4800002049000020B3
:100AC0004A0000204B0000202DE9F041024600259D
:100AD0000026002000230024002791F803C00CF01A
:100AE0000F0591F803C00CF0100CBCF1000F03D0FF
:100AF00091F802C04CEA050591F800C0BCF1000F66
:100B000031D0146800202BE04FF0010C0CFA00F3F8
:100B1000B1F800C00CEA03069E4220D183004FF0DA
:100B20000F0C0CFA03F7BC4305FA03FC4CEA04046F
:100B300091F803C0BCF1280F06D14FF0010C0CFA5C
:100B400000FCC2F814C00AE091F803C0BCF1480FE1
:100B500005D14FF0010C0CFA00FCC2F810C0401C8B
:100B60000828D1D31460B1F800C0BCF1FF0F34DD08
:100B7000546800202EE000F1080C4FF0010808FA3C
:100B80000CF3B1F800C00CEA03069E4221D18300A9
:100B90004FF00F0C0CFA03F7BC4305FA03FC4CEAC8
:100BA000040491F803C0BCF1280F05D100F1080C32
:100BB00008FA0CF8C2F8148091F803C0BCF1480F91
:100BC00007D100F1080C4FF0010808FA0CF8C2F840
:100BD0001080401C0828CED35460BDE8F081024646
:100BE000002093680B400BB1012000E0002070470B
:100BF00002460020D3680B400BB1012000E000202A
:100C0000704741617047016170470AB1016100E0BE
:100C10004161704700BFFEE710B54FF4005108482E
:100C2000FFF7E6FF28B94FF400510548FFF7EBFF47
:100C300004E04FF400510248FFF7E3FF10BD00004D
:100C40000010014008B50121102000F053FC1020D5
:100C50008DF803004002ADF8000003208DF802007B
:100C600069460448FFF730FF4FF400510148FFF791
:100C7000C8FF08BD0010014000BFFEE7704700003C
:100C800070B5002100230F22C47804B3154C2468EA
:100C900004F4E064C4F5E064210AC1F10403CA402D
:100CA000447804FA03F184781440214309010E4C7E
:100CB0000678A155047804F01F050124AC4005789E
:100CC0006D11AD0005F1E025C5F8004109E004789B
:100CD00004F01F050124AC40044D0678761145F858
:100CE000264070BD0CED00E000E400E080E100E093
:100CF00002490143024A1160704700000000FA05F2
:100D00000CED00E000200CE0002106E00022064B84
:100D100003EBC0135A544A1CD1B28029F6DB421CA3
:100D2000D0B20828F0DB7047600000202DE9F043C6
:100D300004460D4616461F467F2C01DDBDE8F083B4
:100D40003F2D00DDFAE7A119802902DDC4F1800101
:100D5000CEB2E919402902DDC5F14001CFB22846E3
:100D600030E0234629E04FEAE07C00EB5C7C4FEA70
:100D7000EC0CDFF85C8008EBCC1C1CF803C00246CE
:100D80004FEAE07800EB58784FEAE808A0EBC80992
:100D90004FF0010808FA09F82CEA080C01464FEA5E
:100DA000E07800EB58784FEAE808DFF8249009EB88
:100DB000C81808F803C0591CCBB2A1199942D2DC5B
:100DC000411CC8B2E9198142CBDC00BFB6E7000084
:100DD0006000002038B5002406E0002500E06D1C0E
:100DE000B5F57A7FFBD3641CB4F57A7FF5D3012186
:100DF000082000F07FFB14208DF8030003208DF8FD
:100E000002004FF48070ADF8000069460848FFF713
:100E10005BFE4FF40070ADF8000069460448FFF730
:100E200053FE012000F030FA012000F039FA38BDFD
:100E3000000C014070B50546002411E080212141DD
:100E4000294009B1012100E00021084600F028FAFC
:100E5000012000F019FA002000F016FA601CC4B25C
:100E6000082CEBDB012000F00FFA002000F00CFA58
:100E700070BD10B5012000F013FA012000F004FA53
:100E8000002000F00DFA002000F0FEF910BD10B5B2
:100E9000002000F005FA012000F0F6F9012000F032
:100EA000FFF910BD10B5FFF795FFAE2000F004FA72
:100EB000D52000F001FA802000F0FEF9A82000F013
:100EC000FBF93F2000F0F8F9D32000F0F5F90020FD
:100ED00000F0F2F9402000F0EFF9A02000F0ECF96A
:100EE000C02000F0E9F9DA2000F0E6F9122000F065
:100EF000E3F9812000F0E0F9CF2000F0DDF9D920FE
:100F000000F0DAF9F12000F0D7F9DB2000F0D4F995
:100F1000302000F0D1F9A42000F0CEF9A62000F096
:100F2000CBF98D2000F0C8F9142000F0C5F9AF20EE
:100F300000F0C2F9FFF7E6FE00F054F910BD10B55D
:100F40000246012000E050430B1EA1F10101FAD13D
:100F500010BD70B505460C46A01CC4B245F0B000EB
:100F600000F0AAF9102141EA141000F0A5F904F0EC
:100F70000F0000F0A1F970BDF8B506460F46144603
:100F80001D46082D0CD1A4F120000E4901EB0010E4
:100F90001023082239460090304600F065F80FE033
:100FA000062D0DD1A4F1200000EB4000064901EB15
:100FB00040000823062239460090304600F054F8DD
:100FC000F8BD00007C4C00086C5200082DE9FC477D
:100FD00080468946164600270020019000253AE009
:100FE000705D01A9C855781CC7B2022F31DB0027FC
:100FF00000240CE0C4EBC40101EB8101184A8818FD
:1010000001A9FFF7BAF800B90CE0601CC4B2C4EB48
:10101000C40101EB8101124A881812A1FFF7ADF853
:101020000028E7D100BFC4EBC40000EB80000C49EE
:101030000844C01C05F1010A0AEBDA714910491E87
:1010400008EB01110090C8B210231A46494600F07F
:101050000BF8681CC5B2705D0028C1D1BDE8FC87E3
:10106000A6540008000000002DE9F04707460C4692
:1010700090469946DDF820A07F2F01DDBDE8F0877E
:101080003F2C00DDFAE74B46424621463846FFF743
:101090004DFE002570E0002669E0B8197F2800DDCC
:1010A00067E0E11704EB517105EBE101072900DD71
:1010B000E4E72046E21704EB527205EBE202354BFF
:1010C00003EBC212BB19D25C2146E31704EB537346
:1010D000DB10A4EBC30305FB086C1AF80CC00CFA78
:1010E00003FC42EA0C02E31704EB537305EBE30342
:1010F000DFF8A0C00CEBC31307EB060C03F80C20C1
:10110000E11704EB517105EBE101491C072900DDF2
:101110002BE02046E21704EB527205EBE202521C70
:101120001C4B03EBC212BB19D25C2146E31704EB44
:101130005373DB10A4EBC303C3F1080305FB086C76
:101140001AF80CC04CFA03FC42EA0C02E31704EB59
:10115000537305EBE3035B1CDFF838C00CEBC313E0
:1011600007EB060C03F80C2000BF701CC6B2464506
:1011700093DB00BF681CC5B2A9F10100C11700EBE9
:101180005171012202EBE101A94284DC00F02AF84E
:1011900000BF73E7600000202DE9F047064689464E
:1011A00017461D46DDF82080002417E0281B411E4D
:1011B0000A20FFF7C4FEB7FBF0F00A21B0FBF1F202
:1011C00001FB120000F1300A04FB0861C8B243467B
:1011D00052464946FFF7D0FE601CC4B2AC42E5DB84
:1011E000BDE8F08710B500240BE000212046FFF792
:1011F000B0FE054901EBC410802100F06DF8601CC1
:10120000C4B2082CF1DB10BD600000202DE9F041D4
:1012100005460C46174698467F2D01DDBDE8F08156
:101220003F2C00DDFAE7E819802802DDC5F18000D7
:10123000C7B204EB0800402803DDC4F1400000F011
:10124000FF082046E11704EB5171C1F3C7060CE01B
:1012500029463046FFF77DFE0A4901EBC6114819C1
:10126000394600F039F8701CC6B204EB0801481E7C
:10127000C11700EB5171012202EBE101B142E7DC41
:1012800000BFCBE76000002010B5044622464FF4B3
:1012900080710248FFF7B9FC10BD0000000C01404E
:1012A00010B5044622464FF400710248FFF7ADFC2A
:1012B00010BD0000000C014010B50446FFF7D9FD39
:1012C0007820FFF7B7FD0020FFF7B4FD2046FFF7B9
:1012D000B1FDFFF7DCFD10BD70B505460E46FFF70A
:1012E000C8FD7820FFF7A6FD4020FFF7A3FD0024EE
:1012F00004E0285DFFF79EFD601CC4B2B442F8DB39
:10130000FFF7C5FD70BD000008B511A20021084619
:10131000FFF75CFE11480068642808D10820032309
:101320006422002100904020FFF736FF08E00820EB
:10133000022300900948002102684020FFF72CFF9B
:101340001023802200210846FFF760FF08BD00003F
:10135000BFAAD0C4D6B5A3AC000000004000002056
:1013600008B511A200210846FFF730FE11480068B9
:10137000642808D108200323642200210090402023
:10138000FFF70AFF08E00820022300900948002127
:1013900002684020FFF700FF10238022002108464A
:1013A000FFF734FF08BD0000CCE5C1A6D6B5A3AC5D
:1013B000000000004400002000B589B00121022097
:1013C00000F088F80121042000F094F801210820A1
:1013D00000F090F818208DF82300C020ADF8200010
:1013E00003208DF8220008A92248FFF76DFB032097
:1013F000ADF8200008A92048FFF766FB1F4800F061
:10140000E8FA0020ADF81A00ADF8160044F61F60A7
:10141000ADF818004720ADF8140000208DF81C002E
:1014200005A9164800F01CFC01A800F005FC60208E
:10143000ADF804000020ADF80C000120ADF8060066
:101440000020ADF80A0001A90C4800F015FB01A925
:101450000A4800F063FB01A9084800F0C1FA01A99D
:10146000064800F0ABFB0121044800F07FFA09B008
:1014700000BD000000080140000C014000040040D5
:1014800010B504462146024800F0E0FB10BD000004
:101490000004004010B504462146024800F0D8FB85
:1014A00010BD00000004004010B50446214602486B
:1014B00000F0D0FB10BD00000004004010B5044651
:1014C0002146024800F0C8FB10BD000000040040A7
:1014D0007047000029B1064AD2690243044BDA6121
:1014E00004E0034AD2698243014BDA61704700008D
:1014F0000010024029B1064A92690243044B9A61E6
:1015000004E0034A92698243014B9A6170470000EC
:101510000010024030B500210022002400232D4D90
:101520006D6805F00C0121B1042905D0082923D1EB
:1015300005E0294D056022E0274D05601FE0254D9F
:101540006D6805F47012234D6D6805F48034022532
:1015500005EB92421CB9214D554305600BE01D4D32
:101560006D6805F400351DB11C4D5543056002E062
:10157000194D5543056002E0174D056000BF00BFDF
:10158000144D6D6805F0F0010909154D6B5C056897
:10159000DD4045600F4D6D6805F4E061090A104DAE
:1015A0006B5C4568DD4085600A4D6D6805F46051EF
:1015B000C90A0B4D6B5C4568DD40C560054D6D6823
:1015C00005F44041890B074D6B5CC568B5FBF3F52D
:1015D000056130BD0010024000127A0000093D0094
:1015E000000000201000002070472DE9F0418EB06F
:1015F00080460E46002700243046FEF7B7FDC5B2F0
:10160000FD208DF8040000208DF80500E81CC0B214
:101610008DF8060001208DF8070040EA0810C0B2DE
:101620008DF8080000BF03E001A8005D4740641C7E
:10163000052CF9D3002402E0305D4740641CAC4225
:10164000FAD32A4631460DF10900FEF77DFD681DEB
:1016500001A90F54A81DC1B201A800F091FC0EB061
:10166000BDE8F08110B5064800F08CF9A0F5FA70DD
:10167000B42148434FF4FA6190FBF1F0C0B210BDC1
:101680000004004010B5064800F07FF9A0F5FA709C
:10169000B42148434FF4FA6190FBF1F0C0B210BDA1
:1016A0000004004010B5064800F072F9A0F5FA7089
:1016B000B42148434FF4FA6190FBF1F0C0B210BD81
:1016C0000004004010B5064800F065F9A0F5FA7076
:1016D000B42148434FF4FA6190FBF1F0C0B210BD61
:1016E0000004004010B5FFF767FE10BD2DE9F04182
:1016F00004460A492046FEF7D8FD80460849FEF711
:10170000A2FD07460749FEF746FD0646FEF7AEFF77
:1017100085B22846FFF7B4FEBDE8F08100003443EF
:101720000000FA440000FA432DE9F04104460A495A
:101730002046FEF7BAFD80460849FEF784FD0746BD
:101740000749FEF728FD0646FEF790FF85B22846BA
:10175000FFF7A0FEBDE8F081000034430000FA442A
:101760000000FA432DE9F04104460A492046FEF7FD
:101770009CFD80460849FEF766FD07460749FEF7CF
:101780000AFD0646FEF772FF85B22846FFF78CFE7B
:10179000BDE8F081000034430000FA440000FA4341
:1017A0002DE9F04104460A492046FEF77EFD8046B9
:1017B0000849FEF748FD07460749FEF7ECFC0646D8
:1017C000FEF754FF85B22846FFF778FEBDE8F081AA
:1017D000000034430000FA440000FA4310B500F062
:1017E00001F810BD0CB5002001900090334800684E
:1017F00040F480303149086000BF3048006800F490
:10180000003000900198401C0190009818B9019890
:10181000B0F5A06FF1D12948006800F4003010B194
:101820000120009001E0002000900098012843D1A1
:101830002348006840F0100021490860084600680D
:1018400020F0030008600846006840F002000860CD
:101850001A48406819494860084640684860084688
:10186000406840F4806048600846406820F47C107E
:1018700048600846406840F4E81048600846006840
:1018800040F08070086000BF0C48006800F00070F5
:101890000028F9D00948406820F003000749486053
:1018A0000846406840F00200486000BF03484068B6
:1018B00000F00C000828F9D10CBD00000010024017
:1018C000002002407047000010B51348006840F047
:1018D00001001149086008464068104908400E4957
:1018E0004860084600680E4908400B4908600846F1
:1018F000006820F4802008600846406820F4FE005C
:1019000048604FF41F008860FFF768FF4FF00060E9
:101910000449086010BD0000001002400000FFF8FC
:10192000FFFFF6FE08ED00E010B50121880700F08A
:1019300036F801280ED102210748FFF750F9012897
:1019400004D106480088401C04490880012188070A
:1019500000F009F810BD0000000801403000002030
:10196000CA4302827047CA430282704721B102888B
:1019700042F00102028004E002884FF6FE731A4032
:10198000028070470146888E70470146088F704775
:101990000146888F70470146B1F84000704730B566
:1019A0000246002000230024158A05EA01039589D8
:1019B00005EA010413B10CB1012000E0002030BDA4
:1019C0001AB183890B43838102E083898B4383812E
:1019D000704701894FF6F87211400181704700008D
:1019E00070B5002400220023058C4FF6FE763540AA
:1019F0000584028C8388048B4FF68F752C40B51EAE
:101A00002C400D882C43751E2A400D892A434D8891
:101A10002A43144DA8420BD0134DA84208D0134DB1
:101A2000A84205D0124DA84202D0124DA84213D1AF
:101A30004FF6F7752A404D892A434FF6FB752A4029
:101A40008D882A434FF6FF652B404FF6FF552B40FC
:101A50008D892B43CD892B4383800483CD88858654
:101A6000028470BD002C0140003401400040014060
:101A7000004401400048014070B5002400220023CA
:101A8000058C4FF6EF7635400584028C8388048BF5
:101A900048F6FF752C404FF6FF452C400D884FF659
:101AA000FF7606EA05252C434FF6DF752A400D899F
:101AB00006EA05152A434D8806EA05152A43154D01
:101AC000A84202D0144DA8421DD14FF67F752A407E
:101AD0004D894FF6FF7606EA05152A434FF6BF7586
:101AE0002A408D8806EA05152A434FF6FF352B401C
:101AF0004FF2FF752B408D8906EA85052B43CD8972
:101B000006EA85052B4383800483CD8805870284FC
:101B100070BD0000002C01400034014070B500246D
:101B200000220023058C4FF6FF6635400584028CA9
:101B30008388848B4FF68F752C404FF6FC752C40B4
:101B40000D882C434FF6FF552A400D894FF6FF763E
:101B500006EA05252A434D8806EA05252A43154D40
:101B6000A84202D0144DA8421DD14FF2FF752A4061
:101B70004D894FF6FF7606EA05252A434FF6FF35D5
:101B80002A408D8806EA05252A434EF6FF752B402C
:101B90004DF6FF752B408D8906EA05152B43CD893F
:101BA00006EA05152B4383808483CD8885870284CC
:101BB00070BD0000002C01400034014070B50022CF
:101BC00000230024058C4EF6FF7635400584038CF7
:101BD0008488828B48F6FF752A404FF6FF452A40DD
:101BE0000D884FF6FF7606EA05252A434DF6FF7568
:101BF0002B400D8906EA05352B434D8806EA05354D
:101C00002B430B4DA84202D00A4DA84208D14BF6F7
:101C1000FF752C408D894FF6FF7606EA85152C431B
:101C200084808283CD88A0F84050038470BD00007A
:101C3000002C01400034014000210180418081805E
:101C4000C180018141818181C18170478186704756
:101C50000187704781877047A0F8401070470000E7
:101C6000002202881D4B98420ED01D4B98420BD08B
:101C7000B0F1804F08D01B4B984205D01A4B9842C8
:101C800002D01A4B984204D14FF68F731A404B88FA
:101C90001A43174B984207D0164B984204D04FF680
:101CA000FF431A40CB881A4302808B8883850B88B8
:101CB00003850A4B98420BD0094B984208D00E4B33
:101CC000984205D00D4B984202D00D4B984201D15D
:101CD0000B7A03860123838270470000002C0140A9
:101CE000003401400004004000080040000C0040A7
:101CF000001000400014004000400140004401403A
:101D0000004801401FB500201E49088001210846F7
:101D1000FFF7E0FB4FF08040FFF75BFE0020ADF8DF
:101D20000A00ADF8060041F61F40ADF8080000209B
:101D3000ADF804008DF80C0001A94FF08040FFF7CA
:101D40008FFF01218807FFF70BFE01221146900744
:101D5000FFF736FE4FF4A060FEF7CAFF1C208DF897
:101D6000000001208DF8030002208DF80100012001
:101D70008DF802006846FEF783FF01218807FFF710
:101D8000F5FD1FBD300000200148007870470000BD
:101D90001400002005480078012804D100200349E0
:101DA0000870012070470020FCE7000015000020AB
:101DB00010B540F22551094800F09DF901280CD1D9
:101DC000064800F053FA06490870012005490870DA
:101DD00040F22551014800F073F910BD0038014070
:101DE000140000201500002000B587B001218803F1
:101DF000FFF780FB01210420FFF77CFB18208DF802
:101E00001B004FF40070ADF8180003208DF81A0085
:101E100006A91F48FEF758FE48208DF81B004FF416
:101E20008060ADF8180006A91948FEF74DFE4FF482
:101E3000E13002900020ADF814000C20ADF8120043
:101E40000020ADF81000ADF80E00ADF80C0002A9AE
:101E5000104800F09FF9012240F225510D4800F092
:101E600074F94FF4A060FEF743FF25208DF80400BD
:101E700001208DF807008DF805008DF8060001A8F7
:101E8000FEF7FEFE0121034800F029F907B000BD6E
:101E9000000801400038014010B540F225510948C2
:101EA00000F029F901280CD1064800F0DFF90649B5
:101EB000087001200549087040F22551014800F0E2
:101EC000FFF810BD0044004016000020170000205D
:101ED00000B587B001210420FFF70CFB0121480465
:101EE000FFF7F8FA03208DF81A0018208DF81B0070
:101EF0000420ADF8180006A91F48FEF7E5FD4820AC
:101F00008DF81B000820ADF8180006A91A48FEF746
:101F1000DBFD4FF4165002900020ADF814000C20A9
:101F2000ADF812000020ADF81000ADF80E00ADF8CD
:101F30000C0002A9114800F02DF9012240F22551B0
:101F40000E4800F002F94FF4A060FEF7D1FE262003
:101F50008DF8040001208DF807008DF8050002209F
:101F60008DF8060001A8FEF78BFE0121034800F062
:101F7000B6F807B000BD0000000801400044004072
:101F800010B500220DE000BF074B1B8803F0400393
:101F9000002BF9D010F8013B034C241D2380531C67
:101FA000DAB28A42EFDB10BD0044004001480078FD
:101FB000704700001800002005480078012804D16F
:101FC000002003490870012070470020FCE7000052
:101FD0001900002010B540F22551094800F08BF897
:101FE00001280CD1064800F041F90649087001208B
:101FF0000549087040F22551014800F061F810BD14
:1020000000480040180000201900002000B587B0EB
:1020100001218804FFF75EFA01210820FFF76AFA20
:1020200003208DF81A0018208DF81B004FF48060F3
:10203000ADF8180006A92048FEF746FD48208DF8A7
:102040001B004FF40060ADF8180006A91A48FEF70F
:102050003BFD4FF4165002900020ADF814000C2008
:10206000ADF812000020ADF81000ADF80E00ADF88C
:102070000C0002A9114800F08DF8012240F2255110
:102080000E4800F062F84FF4A060FEF731FE272002
:102090008DF8040001208DF807008DF8050003205D
:1020A0008DF8060001A8FEF7EBFD0121034800F0C2
:1020B00016F807B000BD0000000C014000480040C9
:1020C00010B50022002340F66A14A14200D100BFDF
:1020D0000A1201249440A3B2DC43048010BD21B154
:1020E000828942F40052828104E082894DF6FF73B6
:1020F0001A408281704770B50246002400230025F3
:10210000002040F66A16B14200D100BFC1F342156B
:1021100001F01F03012606FA03F3012D02D196896F
:10212000334006E0022D02D1168A334001E0968A40
:1021300033400C12012606FA04F41688344013B119
:102140000CB1012000E0002070BDF0B50346002472
:1021500000260025002040F66A17B94200D100BFD2
:102160001846C1F3421401F01F06012707FA06F5CD
:10217000012C01D10C3004E0022C01D1103000E020
:1021800014301AB107682F43076002E00768AF43B5
:102190000760F0BD2DE9F04786B005460E460024E5
:1021A000A24600BFA1460027B08900B100BF2F465C
:1021B0002C8A4CF6FF700440F08804432C82AC89D2
:1021C0004EF6F3100440B088318908437189084302
:1021D0000443AC81AC8A4FF6FF400440B08904430D
:1021E000AC8201A8FFF796F91F48874202D1DDF8BB
:1021F00010A001E0DDF80CA0A88900F4004040B177
:102200000AEBCA0000EB0A1031684900B0FBF1F894
:1022100007E00AEBCA0000EB0A1031688900B0FB46
:10222000F1F86420B8FBF0F004012009642101FBFF
:102230001089A88900F4004040B1322000EBC900A9
:10224000B0FBF1F000F00700044308E0322000EB9F
:1022500009106421B0FBF1F000F00F0004432C8161
:1022600006B0BDE8F08700000038014001468888CC
:10227000C0F30800704700002DE9F05F00F04CF853
:102280006420FEF7A8FB0D480088FEF7E2F98046BF
:102290000B4A0C4BFEF7EEF8064600220A4BFEF7FF
:1022A000E9F8044600224FF08043FEF755F98246D4
:1022B000FEF7F0F980B2BDE8F09F0000300000208A
:1022C0002D431CEBE2361A3F009AE04008B501218D
:1022D0000420FFF70FF910208DF803000120ADF85E
:1022E000000003208DF8020069460A48FEF7ECFB67
:1022F00028208DF803000220ADF8000003208DF89F
:10230000020069460348FEF7DFFB01210148FEF7A2
:1023100078FC08BD0008014010B501210648FEF711
:1023200072FC2D20FEF76FFB01210348FEF769FCCC
:10233000FFF7E8FC10BD00000008014000BFFEE709
:102340000FB4084B10B504A902AA039800F0DEF8F8
:10235000044602A9002000F070FC204610BC5DF885
:1023600014FB00003B2C000802E008C8121F08C143
:10237000002AFAD170477047002001E001C1121F06
:10238000002AFBD1704700002DE9FF5F82B00021D9
:10239000DDE90430020DDDF840B0034318D044F607
:1023A0001050A2F2FF3242431514119801281FD099
:1023B000A5EB0B00401C5FEA000A4FF000064E4FF1
:1023C000DFF83891B046504615D5CAF1000413E045
:1023D000119801244AA3012801D16FEA0B01029848
:1023E000119AC0E90031C0E9024206B0BDE8F09F91
:1023F000CBF10000DFE704460021404A491842EBD8
:102400000450CDE9001012E0E00707D032463B4609
:1024100040464946FEF72EF88046894632463B46FE
:1024200010461946FEF726F806460F466410002CA3
:10243000EAD1DDE90401DDE90023BAF1000F06DA93
:10244000FEF718F842464B46FEF714F805E0FEF793
:1024500083F842464B46FEF77FF804460E460022BC
:10246000284BFEF731F903D84FF0FF30014607E063
:102470000022254B20463146FDF755FFFEF748FA6E
:10248000102409E0002C0ADB0A220023FEF74AF997
:10249000039B30321A55641E50EA0102F2D1641CCB
:1024A000039AC4F111031444119A012A03D00122A2
:1024B00008430DD10AE0084304D000204FF0110B6F
:1024C000119072E7A3EB0B056D1E0DE05B4504DD7B
:1024D0004FF0000205F1010504E003DA4FF00002BD
:1024E000A5F10105002AECD002981199C0E902314A
:1024F000C0E9004579E70000000014400000F03F0B
:10250000300000000000F0430000E03F2DE9FF4FE5
:1025100095B09B468946064600250FE2252877D1CF
:1025200000242746F84A0121059400E0044316F8E8
:10253000013F203B01FA03F01042F7D130782A28FE
:1025400011D06FF02F033078A0F13002092A16D88D
:10255000059A44F0020402EB820203EB42021044AB
:10256000761C0590EFE759F8042B0592002A03DA50
:10257000504244F40054059044F00204761C307834
:102580002E2816D116F8010F44F004042A280DD085
:102590006FF02F023078A0F13003092B09D807EB38
:1025A000870302EB4303C718761CF3E759F8047B53
:1025B000761C30786C280FD006DC4C2817D06828A1
:1025C0000DD06A2814D104E0742810D07A280FD1D5
:1025D0000DE044F400140AE044F4801401E044F4F3
:1025E00040147278824202D104F58014761C761C65
:1025F000307866280BD013DC582877D009DC002807
:1026000075D04528F6D04628F4D047281AD19DE148
:1026100018E0632835D0642879D0652812D195E177
:10262000702873D008DC6728F1D069286FD06E2835
:102630000DD06F2806D1B5E073282CD0752875D041
:10264000782874D05A46179990476D1C75E1C4F3E9
:102650000250022809D003280DD0D9F80010042810
:102660000DD00D6009F1040967E1D9F80010EA17EF
:10267000C1E90052F6E7D9F800100D80F2E70D70BD
:10268000F0E719F8041B8DF8001000208DF8010008
:10269000EA46012003E059F804AB4FF0FF30610730
:1026A0004FF0000102D40DE008F101018846B94263
:1026B0000FDA8045F8DB1AF808100029F4D108E099
:1026C00008F1010188468142FADB1AF80810002956
:1026D000F6D105985B46A0EB080721463846179AC5
:1026E00000F094FA284400EB080507E04DE029E1EA
:1026F0000DE01AF8010B5A4617999047B8F10108F6
:10270000F7D25B4621463846179A13E142E00A2287
:102710000092C4F302524FF0000A022A08D059F87E
:1027200004CB032A4FEAEC710AD00DE029E02AE03D
:1027300009F1070121F00702F2E802C1914609E020
:102740000FFA8CFC4FEAEC71042A03D14FFA8CFC8F
:102750004FEAEC71002907DA0A460021DCF1000C8F
:1027600061EB02012D2202E0220504D52B228DF817
:102770000420012203E0E20701D02022F7E790467F
:1027800059E00A2102E010220DE010214FF0000A6A
:1027900000910BE010224FF0000A44F004040827D7
:1027A000009203E008224FF0000A0092C4F30252A4
:1027B000022A05D059F804CB0021032A08D009E0E9
:1027C00009F1070121F00702F2E802C1914605E094
:1027D0001FFA8CFC042A01D10CF0FF0C4FF000080A
:1027E000220728D5702806D0009B83F0100353EAF7
:1027F0000A0305D00EE040228DF80420012208E0F3
:102800005CEA010206D030228DF804208DF8050024
:1028100002229046009B83F0080353EA0A030AD180
:102820005CEA010201D1620705D530228DF804204F
:102830004FF001087F1E582804D034A003900EA842
:1028400002900DE036A0F9E753466046009AFDF786
:1028500069FF84460398825C0298401E02900270D1
:102860005CEA0100F0D1029806A9081A00F1200ADA
:10287000600702D524F4803400E00127574502DDCB
:10288000A7EB0A0000E0002000EB0A010090059889
:102890004144401A0590E00306D45B462146179A4E
:1028A000059800F0B3F90544002706E001A85A4650
:1028B000C05D179990476D1C7F1C4745F6DBE00310
:1028C0000CD55B462146179A059800F09FF9054400
:1028D00004E030205A46179990476D1C0099481E15
:1028E00000900029F5DC08E0029802995A46007829
:1028F000491C0291179990476D1CBAF10001AAF189
:10290000010AF1DC65E100000928010030313233B1
:10291000343536373839616263646566000000001B
:102920003031323334353637383941424344454605
:102930000000000000F058F90544761C30780028AB
:102940007FF4ECAD19B02846BDE8F08F620700D4E3
:10295000062709F1070222F0070CFCE80223E146F2
:1029600003F000485FEA080C02D00FF2702C0DE073
:102970005FEA045C02D50FF2682C07E05FEAC47CD2
:1029800002D00FF2602C01E0AFF2700C4FF0FF3874
:1029900023F00043CDF850C065280CD006DC452854
:1029A00009D046281DD047283DD13DE0662818D0E3
:1029B00067287ED138E00021112F01DB112000E0D3
:1029C000781CCDE9000106A90EA8FFF7DDFCDDE9C2
:1029D0000F010E9A03910021009207F1010A049160
:1029E0004DE04FF000400097CDE9011006A90EA878
:1029F000FFF7CAFCDDE90F0203920E9B119900223A
:102A0000DDF80CA00093049211B9791C00EB010AC7
:102A1000B7EB0A0004D4C0F1FF3007F1010A0490BB
:102A2000AAEB0700019044E0012F00DA0127002102
:102A3000112F01DD112000E03846CDE9000106A983
:102A40000EA8FFF7A1FCDDE90F010E9A039100210A
:102A500004910092BA4621070CD40399514500DA3B
:102A60008A46BAF1010F05DD009AAAF10101515C15
:102A7000302908D0B84202DA10F1040F06DA012139
:102A8000CDE9011015E0AAF10101E9E7002805DC14
:102A9000049901440491AAEB000102E0411C514554
:102AA00000DD8A460499401A401C01904FF0004016
:102AB0000290200704D40198504501DBCDF8048032
:102AC00000208DF84F0002980DF14F07B0F1004F34
:102AD00025D02B200E9002984FF0020800280CDA27
:102AE000404202902D200E9007E00A210298FDF747
:102AF00003FE3031029007F8011DB8F10001A8F182
:102B00000108F2DC02980028EFD1791E0E980870B7
:102B1000307800F0200040F0450007F8020D12A8C0
:102B2000C01B00F107081498007800B1012000EBE9
:102B30000A01019801EBE07105984144401A401EDA
:102B40000590E00306D45B462146179A059800F0ED
:102B50005DF805441498007818B15A4617999047C3
:102B60006D1CE00324D55B462146179A059800F0BA
:102B70004DF805441CE00498002807DBDDE903015B
:102B8000884203DD0098405C179901E017993020D6
:102B90005A469047049805F10105401C049001989D
:102BA000401E019004D12E205A46179990476D1C63
:102BB000BAF10001AAF1010ADDDC05E017F8010B0A
:102BC0005A46179990476D1CB8F10001A8F1010809
:102BD000F4DC5B462146179A0598ABE62D00000011
:102BE0002B000000200000002DE9F04104460025E4
:102BF0001E461746880404D405E039462020B04715
:102C00006D1C641EF9D52846BDE8F0812DE9F04120
:102C1000044600251E469046C80301D5302700E033
:102C20002027880404D505E041463846B0476D1C8E
:102C3000641EF9D52846BDE8F0810A68531C0B6074
:102C40001070704710B54FF400610248FDF7C7FFE0
:102C500010BD00000008014010B510210148FDF72B
:102C6000BEFF10BD0008014010B54FF4805102486E
:102C7000FDF7B5FF10BD00000008014010B5202190
:102C80000148FDF7ACFF10BD0008014008B5012167
:102C90000420FEF72FFC28208DF8030041F63000B9
:102CA000ADF8000003208DF8020069460A48FDF7E0
:102CB0000BFF10210848FDF7A4FF20210648FDF76F
:102CC000A0FF4FF400610448FDF79BFF4FF48051D3
:102CD0000148FDF796FF08BD0008014070B50020CF
:102CE0003F49086031E03E49096801F15A00FDF7AB
:102CF000A2FC0446FEF7FAFC39490968C1F15A0002
:102D0000FDF799FC0446FEF72DFD35490C6804EBF0
:102D1000D471491001F15A00FDF78DFC0546FEF70C
:102D200003FD2F490C6804EBD4714910C1F15A001E
:102D3000FDF781FC0546FEF733FD0520FDF74BFE50
:102D400027480068401C26490860254800684B2831
:102D5000C9DB24490968322201FB02F0FDF73BFE82
:102D600000201F49086031E01D490968C1F1A50034
:102D7000FDF761FC0446FEF7B9FC1949096801F149
:102D80000F00FDF758FC0446FEF7ECFC14490C68F4
:102D900004EBD4714910C1F17F00FDF74CFC0546EE
:102DA000FEF7C2FC0E490C6804EBD471491001F126
:102DB0003500FDF740FC0546FEF7F2FC0520FDF767
:102DC0000AFE07480068401C05490860044800687E
:102DD0004B28C9DB03480068FDF7FDFD70BD00000E
:102DE0001C0000202400002008B5FDF72BFFFEF793
:102DF00059F8FEF7F9FFFFF76BF8FFF707F9FEF751
:102E000071FCFFF743FFFFF761FAC820B84908607B
:102E10004FF4FA70B74908600020B7490880B749F5
:102E20000880FDF76FFFB648402380220021009004
:102E30000846FEF719F9B3A10020FEF7D6FB0120E2
:102E4000FDF7D5FD53E1AB480068002816DDFEF71D
:102E50009BFFB1490870FFF7A9F8B0490870FEF769
:102E600099FF20B1AC480078AD49087006E0FFF743
:102E7000A3F818B1A9480078A94908709D480068CE
:102E8000002804DA00F038FD00209A4908609948CB
:102E9000006820BBFEF778FF322801D1012400E052
:102EA0000024FFF783F8322801D1012000E0002040
:102EB000044314B100F0E4FD11E0FEF765FF702853
:102EC00001D1012400E00024FFF770F8702801D13F
:102ED000012000E0002004430CB100F071FD8548A2
:102EE0000068B0F5FA7F03DD4FF4FA70814908609D
:102EF0007F480068002804DA00207D49086000F05F
:102F0000FBFC7B480068C82802DDC82078490860BF
:102F100083480078482802D10120784908808048F9
:102F2000007868280AD10020744908807D4908701B
:102F30007D4908707D4908707D4908706F48008898
:102F400008B1FDF777FD76480078782802D1012096
:102F50006949088072480078632805D100206649D5
:102F600008806420734908806348008808B1FDF731
:102F7000F9FC6B480078662802D100F001FAB6E04F
:102F800067480078622802D100F0D8F8AFE06448C2
:102F900000786C2802D100F075FCA8E06048007849
:102FA000722802D100F0D2FCA1E05D4800787728B9
:102FB00002D100F035FF9AE0594800787A2802D112
:102FC00000F054FF93E056480078642802D100F0E6
:102FD000B1F98CE052480078352802D100F092FE19
:102FE00085E04F480078712806D153480078302892
:102FF00002D000F0A9FD7AE049480078732806D194
:103000004D480078732802D000F0B0FE6FE04448CD
:1030100000786A2802D100F04FFF68E0404800784D
:10302000792802D100F0EEFB61E03D4800783128BC
:1030300002D100F079FA5AE039480078702806D1B8
:103040003D480078702802D000F0BAFC4FE03448C8
:103050000078322806D138480078322802D000F0B3
:103060000FFD44E02E4800786E2802D100F044FCA9
:103070003DE02B480078422802D100F099F836E074
:1030800027480078592802D101F03AF82FE0244867
:103090000078582802D100F097FF28E020480078F7
:1030A000572802D100F034FF21E01D4800786F2836
:1030B00002D100F069FA1AE019480078552802D1C7
:1030C00000F05AFF13E0164800784B2802D100F0B8
:1030D00091F90CE012480078542802D100F072FDFA
:1030E00005E00F4800785A2801D100F009FBAAE654
:1030F00040000020440000203C0000203E00002052
:10310000B05600085B7631325D5B6D305D5B7435C7
:103110005DCDFACDFA000000350000203600002019
:103120003700002048000020490000204A0000200D
:103130004B0000203A0000203800002008B5164857
:1031400040238022002100900846FDF78DFF01F00A
:103150008BF8FDF761FD11480078622805D1104811
:103160000088401C0E49088002E000200C490880BD
:103170000B480088052804DB0A480068C01E09497E
:103180000860094800780549087008480068401F31
:103190000649086008BD0000B05A00083800002049
:1031A0004E00002040000020370000204400002096
:1031B00008B52F4840238022002100900846FDF7E3
:1031C00053FF2C48FEF792FA2BA10220FEF70DFACE
:1031D0000820FDF70CFC3648402380220021009097
:1031E0000846FDF741FF3348FEF7BCFA32A1022042
:1031F000FEF7FBF90520FDF7FAFB3848FEF776FAF3
:103200003648FEF7AFFA364840238022002100906E
:103210000846FDF729FF33A10220FEF7E6F9052055
:10322000FDF7E5FB1248402380220021009008466C
:10323000FDF71AFF34A10220FEF7D7F901F066FA74
:1032400001F064FA0520FDF7D2FB364800783649D4
:10325000087030203349087034480068801E3349B4
:10326000086033480068401D3149086008BD00000F
:10327000B06E0008000007435B7631325D5B6D3055
:103280005D5B74355DC4E3CAC7BABCD6DDCEF7BAA0
:10329000FEB5C4C3C0BEB0A3ACCAC7CEDED0E8D4AE
:1032A000F6CCEDD0DECACEB5C4C0C3C2FE0000006D
:1032B000B07E0008000034425B7631325D5B6D30D9
:1032C0005D5B74355DD3B5C4E3C8EBBBB3A3ACBEE3
:1032D000CDCAC7B4BAB7E7BACDECE3000000B44238
:1032E000B07600085B7631325D5B6D305D5B7435C6
:1032F0005DCDFBC4E3D1DBEDF8A3ACB1E3CAC7C439
:10330000F1D3EFBBA8CFE3005B7631325D5B6D306C
:103310005D5B74355DB0AEC4E3B5C4A3ACD0A1B4FD
:10332000F400000037000020380000204400002096
:103330004000002008B50D48402380220021009065
:103340000846FDF791FE00F0E9FFFDF765FC08482F
:1033500000780849087008480068401F064908605E
:1033600006480068401D0549086008BDB0660008B1
:1033700037000020380000204400002040000020DA
:1033800008B5164840238022002100900846FDF72A
:103390006BFE01F059F8FDF73FFC114800786628F4
:1033A00005D110480088401C0E49088002E000202A
:1033B0000C4908800B480088052804DB0A4800688F
:1033C000C01E094908600948007805490870084886
:1033D0000068401F0649086008BD0000B05A000898
:1033E000380000204C000020400000203700002062
:1033F0004400002038B52E48302380220821009058
:103400000020FDF731FEFDF77FFF2A482AA1026860
:103410003148FEF795FF30490220FEF7E6F8042018
:10342000FDF7E5FA234800683C2815DB2B483023DC
:103430008022082100900020FDF716FEFDF764FFB2
:1034400027A10220FEF7D1F801F060F901F05EF942
:103450000420FDF7CCFA1FE0164800680A281BDCA0
:10346000274830238022082100900020FDF7FCFD32
:10347000FDF74AFF23A10220FEF7B7F8FCF752FE42
:10348000044600EBD4704010A4EB400010B101F0F2
:10349000DBF901E001F020FA0320FDF7A8FA20484B
:1034A00000782049087030201D49087038BD0000A0
:1034B000B0560008400000205B7631325D5B6D3015
:1034C0005D5B74355DB5B1C7B0B5C4BFAAD0C4D615
:1034D000B5CEAA256400000054000020B076000894
:1034E0005B7631325D5B6D305D5B74355DBACDD638
:1034F000F7C8CBD4DAD2BBC6F0D5E6BFAAD0C40099
:10350000B05A00085B7631325D5B6D305D5B7435BF
:103510005DC5E3D0A1B4F4CDE6D2BBBBE1B0C80039
:10352000370000203800002008B5124840238022D0
:10353000002100900846FDF797FD0F48007801F044
:1035400013FA0E4840238022002100900846FDF720
:103550008BFD00F0D3FFFDF75FFB094800780649BB
:10356000087030200649087006480068401F054969
:10357000086008BDB056000838000020B07A000886
:10358000370000204400002038B54E480078352828
:103590000FD04C48007844280BD04B484023802261
:1035A000002100900846FDF75FFD4648007801F0D5
:1035B000DBF9464840238022002100900846FDF7B1
:1035C00053FD002418E0C4F15A00FDF734F8054615
:1035D000FEF78CF804F15A00FDF72DF80546FEF7CA
:1035E000A3F8C4F15A00FDF726F80546FEF7D8F80F
:1035F0000720FDF7F0F9641C142CE4DB002411E033
:1036000004F16E00FDF717F80546FEF78DF8C4F1DA
:103610004600FDF710F80546FEF7C2F80720FDF753
:10362000DAF9641C282CEBDB00240AE004F14600E4
:10363000FDF701F80546FEF759F80420FDF7CBF930
:10364000641C3C2CF2DB3220FDF7C5F920A10020E0
:10365000FDF7CBFF2448FEF749F84FF4C870FDF79B
:10366000BAF92248FEF742F84FF4C870FDF7B3F9F3
:103670001D48FEF73BF84FF4C870FDF7ACF91B4846
:10368000FEF734F84FF4C870FDF7A5F91848FEF7B7
:103690002DF84FF4FA70FDF79EF9FDF7BDFA1548C5
:1036A00000780849087030201249087012480068F4
:1036B000801E1149086011480068801C0F4908608D
:1036C00038BD000038000020B0560008B082000865
:1036D0005B7631325D5B6D305D5B74355D20B9FECC
:1036E000E0B6D1BD000000000000344300000243FA
:1036F00000008C42370000204400002040000020E1
:1037000008B5FDF7FFFA29A200210846FDF75EFC87
:1037100029480068642808D1082003236422002176
:1037200000904020FDF738FD08E0082002230090BB
:103730002148002102684020FDF72EFD1FA2102124
:103740000020FDF743FC20480068642808D10820C9
:1037500003236422102100904020FDF71DFD08E0A6
:103760000820022300901848102102684020FDF72D
:1037700013FD2023802200210846FDF747FD124853
:1037800003680D4811A102681B48FEF7D9FD1A49CC
:103790000220FDF72AFF0A20FDF729F917480078D3
:1037A0001749087030201549087008BDBFAAD0C459
:1037B000D6B5A3AC0000000040000020CCE5C1A6B7
:1037C000D6B5A3AC00000000440000205B76313287
:1037D0005D5B6D305D5B74355DB5B1C7B0B5C4BFC1
:1037E000AAD0C4D6B5CEAA2564A3ACCCE5C1A6D6D2
:1037F000B5CEAA2564000000540000203700002048
:103800003800002008B5194840238022002100908C
:103810000846FDF729FC1648007801F0A5F8154880
:1038200040238022002100900846FDF71DFCFFF791
:1038300055FA0E4840238022002100900846FDF7EB
:1038400013FCFDF7E9F90C480078094908703020AD
:103850000949087009480068401D0849086008487F
:103860000068401C0649086008BD0000B05600080A
:1038700038000020B0760008370000204400002007
:103880004000002008B51648402380220021009007
:103890000846FDF7E9FB00F079FEFDF7BDF9114898
:1038A00000786C2805D110480088401C0E4908801B
:1038B00002E000200C4908800B480088052804DB42
:1038C0000A480068C01E094908600948007805498F
:1038D000087008480068401F0649086008BD0000DD
:1038E000B062000838000020500000204000002096
:1038F000370000204400002008B50C4840238022F7
:10390000002100900846FDF7AFFB00F0E5FF08A19D
:103910000220FDF76AFE0120FDF769F809480078EA
:103920000949087030200749087008BDB05A0008DE
:103930005B7631325D5B6D305D5B74355DCED8CECC
:10394000D8000000370000203800002008B51648D5
:1039500040238022002100900846FDF785FB00F0FF
:1039600075FEFDF759F911480078722805D1104805
:103970000088401C0E49088002E000200C490880A5
:103980000B480088052804DB0A480068C01E094966
:103990000860094800780549087008480068401F19
:1039A0000649086008BD0000B05E0008380000202D
:1039B000520000204000002037000020440000207A
:1039C00038B52348007835280FD021480078712871
:1039D0000BD0204840238022002100900846FDF7AC
:1039E00043FB1B48007800F0BFFFFCF79BFB04463D
:1039F00000EBD4704010A4EB400040B116484023C7
:103A00008022002100900846FDF72EFB07E01348B6
:103A100040238022002100900846FDF725FB00F09E
:103A200013FF0FA10220FDF7E0FD0120FCF7DFFFEF
:103A3000104800780649087030200E49087064204C
:103A40000D4908600D4800680F300C49086038BD0A
:103A500038000020B0560008B06A0008B0720008B4
:103A60005B7631325D5B6D305D5B74355DCDEDB0A5
:103A7000B200000037000020440000204000002079
:103A800038B525480078352812D0234800787128A9
:103A90000ED0224840238022002100900846FDF7E6
:103AA000E3FA1D48007800F05FFF0120FCF79FFF5C
:103AB000FCF738FB044600EBD4704010A4EB400048
:103AC00040B1174840238022002100900846FDF7AE
:103AD000CBFA07E0134840238022002100900846DB
:103AE000FDF7C2FA00F0F8FE0FA10220FDF77DFD00
:103AF0000120FCF77CFF114800780749087030204E
:103B00000E49087064200E4908600E4800680F30A6
:103B10000C49086038BD000038000020B05600088D
:103B2000B06A0008B07200085B7631325D5B6D30C0
:103B30005D5B74355DCDEDB0B20000003700002054
:103B4000440000204000002008B513480078712888
:103B500006D112A10020FDF748FD0220FCF747FF27
:103B6000144840238022002100900846FDF77CFA8B
:103B70001148007800F0F8FEFDF74EF80F48007885
:103B80000D49087030200D4908700D480068401E2E
:103B90000B49086008BD0000360000205B7631321A
:103BA0005D5B6D305D5B74355DBDD0CED2B8C9C292
:103BB000EF000000B0560008380000203700002059
:103BC0004400002038B52E48302380220821009080
:103BD0000020FDF749FAFDF7C3FB2A482AA1026835
:103BE0003148FEF7ADFB30490220FDF7FEFC042012
:103BF000FCF7FDFE234800683C2815DB2B483023EA
:103C00008022082100900020FDF72EFAFDF7A8FB86
:103C100027A10220FDF7E9FC00F078FD00F076FD19
:103C20000620FCF7E4FE1FE0164800680A281BDCAB
:103C3000294830238022082100900020FDF714FA43
:103C4000FDF78EFB25A10220FDF7CFFCFCF76AFAF9
:103C5000044600EBD4704010A4EB400010B100F01B
:103C6000F3FD01E000F038FE0420FCF7C0FE23481D
:103C700000782349087030202049087038BD0000C2
:103C8000B0560008440000205B7631325D5B6D3039
:103C90005D5B74355DB5B1C7B0B5C4CCE5C1A6D622
:103CA000B5CEAA256400000054000020B0760008BC
:103CB0005B7631325D5B6D305D5B74355DD0A1B498
:103CC000F4BEABC1A6C2FAC2FAA3ACBACDCED2D270
:103CD000BBC6F0CDE6B0C800B05A00085B76313202
:103CE0005D5B6D305D5B74355DC8C3D0A1B4F4D04D
:103CF000DDCFA2D2BBCFC2B0C80000003700002089
:103D00003800002008B51048402380220021009090
:103D10000846FDF7A9F900F0DFFEFCF77DFF0B4830
:103D200000780B49087030200849087009A100206C
:103D3000FDF75BFC0120FCF75AFE0B480068401EB3
:103D40000949086008BD0000B0560008370000208F
:103D5000380000205B7631325D5B6D305D5B743521
:103D60005DCDFACDFA0000004400002008B51F48E0
:103D70000078732807D11EA10020FDF736FC4FF410
:103D8000FA70FCF728FE1F48402380220021009093
:103D90000846FDF769F91C48007800F0E5FD1B486E
:103DA00040238022002100900846FDF75DF900F0D5
:103DB000A7FE174840238022002100900846FDF707
:103DC00053F9FCF729FF134800780F490870302099
:103DD0001049087010480068401D0F4908600F48DE
:103DE0000068801C0D49086008BD000036000020F6
:103DF0005B7631325D5B6D305D5B74355DD7F1C3F1
:103E0000FC000000B056000838000020B05A00083E
:103E1000B08200083700002044000020400000204D
:103E200008B50D4840238022002100900846FDF788
:103E30001BF900F06BFCFCF7EFFE0848007808491E
:103E4000087008480068401F064908600648006876
:103E5000401D0549086008BDB07E000837000020FD
:103E600038000020440000204000002008B50D4824
:103E700040238022002100900846FDF7F5F800F06D
:103E800089FCFCF7C9FE0848007808490870084812
:103E90000068401F0649086006480068401D054943
:103EA000086008BDB07E0008370000203800002000
:103EB000440000204000002008B510484023802224
:103EC000002100900846FDF7CFF800F005FE00F055
:103ED000A9FEFCF7A1FE0A4800780A4908703020C4
:103EE0000749087008480068401F074908600748EC
:103EF0000068801C0549086008BD0000B056000835
:103F0000370000203800002044000020400000203E
:103F100008B50E4840238022002100900846FDF796
:103F2000A3F80BA10220FDF760FB0F48FDF7FCFB97
:103F30000E48FDF735FC0220FCF759FD0C480078CF
:103F40000C49087030200A49087008BDB0660008A6
:103F50005B7631325D5B6D305D5B74355DCEAACAD8
:103F6000C0BDE7D6AEB9E20000000743000034420E
:103F7000370000203800002008B50B48402380227D
:103F8000002100900846FDF76FF808A10220FDF718
:103F90002CFB0120FCF72BFD09480078094908702B
:103FA00030200749087008BDB05600085B763132F2
:103FB0005D5B6D305D5B74355DCED2D4DA000000A0
:103FC000370000203800002008B52C48402380220C
:103FD000002100900846FDF747F82948FDF786FBC9
:103FE00028A10220FDF701FB0220FCF700FD2B4871
:103FF00040238022002100900846FDF735F828482C
:10400000FDF7B0FB27A10220FDF7EFFA0220FCF735
:10401000EEFC2348FDF788FB1948FDF7C1FB274854
:1040200040238022002100900846FDF71DF824A1BE
:104030000220FDF7DAFA0220FCF7D9FC26484023DB
:104040008022002100900846FDF70EF823A10220EF
:10405000FDF7CBFA00F05AFB00F058FB0220FCF70A
:10406000C6FC244800782449087030202149087093
:1040700022480068801E2149086008BDB06600081B
:10408000000007435B7631325D5B6D305D5B7435FC
:104090005DBEABC7DAC7F3D1A7000000B07A000855
:1040A000000034425B7631325D5B6D305D5B7435B0
:1040B0005DB6D8F3C6C0F8D6BE000000B0820008D6
:1040C0005B7631325D5B6D305D5B74355DB9FBD223
:1040D000E3C1A6D0D0000000B07E00085B7631328C
:1040E0005D5B6D305D5B74355DD6D2CBA1C8CECA49
:1040F000C2000000370000203800002044000020EB
:1041000008B5364840238022002100900846FCF77D
:10411000ABFF3348FDF7EAFA32A10220FDF765FA5A
:104120000220FCF764FC4FF4FA70FCF754FC3348AF
:1041300040238022002100900846FCF795FF30487C
:10414000FDF710FB2FA10220FDF74FFA0220FCF72C
:104150004EFC4FF4FA70FCF73EFC2948FDF7E4FAF8
:104160001F48FDF71DFB2D484023802200210090B1
:104170000846FCF779FF2AA10220FDF736FA022053
:10418000FCF735FC4FF4FA70FCF725FC2A48402375
:104190008022002100900846FCF766FF27A102203C
:1041A000FDF723FA00F0B2FA00F0B0FA00F0AEFA30
:1041B0000220FCF71CFC28480078284908703020B1
:1041C0002549087026480068801E25490860254852
:1041D0000068801C2349086008BD0000B066000824
:1041E000000007435B7631325D5B6D305D5B74359B
:1041F0005DC7E2BAA4EFAEEEEBC5F000B07A0008FE
:10420000000034425B7631325D5B6D305D5B74354E
:104210005DCCBCB5AAD1F5B7FAC4CA00B08200081B
:104220005B7631325D5B6D305D5B74355DC4C6C3FA
:10423000BEC2C1B9E8C1D700B07E00085B7631329A
:104240005D5B6D305D5B74355D20D0A1B4F4D7EE5D
:10425000BFC9B0AE000000003700002038000020C9
:10426000440000204000002010B52848FDF73EFA29
:104270002748FDF795FA27480068FCF7ACFB24486F
:10428000FDF752FA2148FDF76DFA22480068FCF765
:10429000A2FB2148FDF72AFA1F48FDF781FA1D48C5
:1042A0000068FCF798FB1C48FDF73EFA1A48FDF73A
:1042B00059FA18480068FCF78EFB1448FDF734FAE9
:1042C0001348FDF74FFA13480068FCF784FB1048C9
:1042D000FDF70CFA0D48FDF763FA0E480068FCF78D
:1042E0007AFB0D48FDF720FA0B48FDF73BFA094829
:1042F0000068FCF770FB0848FDF7F8F90648FDF781
:104300004FFA04480068FCF766FB10BD0000344219
:1043100000000743240000200000B44210B54648C6
:10432000FDF7E4F94448FDF7FFF944480068FCF75D
:1043300052FB4148FDF716FA3F48FDF731FA3F4876
:104340000068FCF748FB3E48FDF7D0F93C48FDF714
:10435000EBF93A480068FCF73EFB3948FDF702FAF2
:104360003748FDF71DFA35480068FCF734FB324842
:10437000FDF7DAF93048FDF7B9F93248FDF7F2F9FF
:104380003048FDF70DFA9620FCF725FB2C48FDF789
:10439000ADF92B48FDF7C8F92948FDF7E3F928489E
:1043A000FDF7FEF99620FCF716FB2648FDF7DAF933
:1043B0002448FDF7F5F921480068FCF70CFB21487B
:1043C000FDF794F91F48FDF7AFF91C480068FCF7AA
:1043D00002FB1B48FDF7C6F91948FDF7E1F917483C
:1043E0000068FCF7F8FA1648FDF780F91448FDF765
:1043F0009BF912480068FCF7EEFA1248FDF794F9B1
:104400001048FDF773F90C48FDF7ACF90A48FDF7C1
:10441000C7F99620FCF7DFFA0948FDF767F9084865
:10442000FDF782F90648FDF79DF90548FDF7B8F953
:104430009620FCF7D0FA10BD0000074324000020AE
:104440000000B4420000344210B52848FDF74EF990
:104450002748FDF7A5F927480068FCF7BCFA24486F
:10446000FDF762F92148FDF77DF922480068FCF765
:10447000B2FA2148FDF73AF91F48FDF791F91D48B6
:104480000068FCF7A8FA1C48FDF74EF91A48FDF73A
:1044900069F918480068FCF79EFA1448FDF744F9DA
:1044A0001348FDF75FF913480068FCF794FA1048C9
:1044B000FDF71CF90D48FDF773F90E480068FCF78D
:1044C0008AFA0D48FDF730F90B48FDF74BF909481A
:1044D0000068FCF780FA0848FDF708F90648FDF780
:1044E0005FF904480068FCF776FA10BD0000074346
:1044F00000003442240000200000B44210B5002027
:104500002149086019E020490968C1F15A00FCF707
:1045100092F80446FDF7EAF81B49096801F15A00D0
:10452000FCF789F80446FDF71DF90A20FCF753FA59
:1045300015480068401C1449086013480068142896
:10454000E1DB00201049086019E00F49096801F11A
:104550005A00FCF770F80446FDF7E6F80A490968C6
:10456000C1F15A00FCF767F80446FDF719F90A2073
:10457000FCF731FA04480068401C0349086002480F
:1045800000684128E1DB10BD1C00002010B5144874
:10459000FDF7CAF81248FDF7E5F812480068FCF785
:1045A0001AFA1148FDF7A2F80F48FDF7F9F80D487F
:1045B0000068FCF710FA0D48FDF7B6F80B48FDF758
:1045C000D1F808480068FCF706FA0848FDF78EF8AD
:1045D0000648FDF7E5F803480068FCF7FCF910BD54
:1045E0000000074324000020000034420000B442D1
:1045F00010B51248FDF798F81048FDF7B3F81048C9
:104600000068FCF7E8F90F48FDF770F80D48FDF772
:10461000C7F80B480068FCF7DEF90B48FDF784F893
:104620000948FDF79FF80848FDF760F80648FDF7D0
:10463000B7F803480068FCF7CEF910BD0000074347
:1046400024000020000034420000B44210B5144899
:10465000FDF74CF81248FDF7A3F812480068FCF784
:10466000BAF91148FDF760F80F48FDF77BF80D48DF
:104670000068FCF7B0F90D48FDF738F80B48FDF776
:104680008FF808480068FCF7A6F90848FDF74CF8D1
:104690000648FDF767F803480068FCF79CF910BD71
:1046A0000000344224000020000007430000B44210
:1046B00010B51248FDF71AF81048FDF771F81048C8
:1046C0000068FCF788F90F48FDF72EF80D48FDF754
:1046D00049F80B480068FCF77EF90B48FDF706F82F
:1046E0000948FDF75DF80848FDF71EF80648FDF794
:1046F00039F803480068FCF76EF910BD0000344239
:1047000024000020000007430000B44210B51E48FA
:10471000FDF70AF81C48FCF7E9FF1C48FDF722F8F2
:104720001A48FDF73DF89620FCF755F91848FCF7B4
:10473000DDFF1748FCF7F8FF1548FDF713F814489C
:10474000FDF72EF89620FCF746F91048FCF7ECFF31
:104750000E48FCF7CBFF0C48FDF704F80A48FDF7BC
:104760001FF89620FCF737F90948FCF7BFFF084807
:10477000FCF7DAFF0648FCF7F5FF0548FDF710F8EF
:104780009620FCF728F910BD0000074300003442D2
:104790000000B44210B52848FCF7A8FF2648FCF7F3
:1047A000C3FF26480068FCF716F92348FCF7DAFF38
:1047B0002148FCF7F5FF21480068FCF70CF9204878
:1047C000FCF794FF1E48FCF7AFFF1C480068FCF79D
:1047D00002F91B48FCF7C6FF1948FCF7E1FF174830
:1047E0000068FCF7F8F81748FCF7BCFF1548FCF721
:1047F000D7FF12480068FCF7EEF81248FCF776FF86
:104800001048FCF791FF0D480068FCF7E4F80C48ED
:10481000FCF7A8FF0A48FCF7C3FF08480068FCF74C
:10482000DAF80748FCF762FF0548FCF77DFF03480C
:104830000068FCF7D0F810BD0000074324000020FA
:104840000000B4420000344210B500202149086045
:1048500019E02049096801F15A00FBF7ECFE044613
:10486000FCF744FF1B490968C1F15A00FBF7E3FE5E
:104870000446FCF777FF0A20FCF7ADF815480068FE
:10488000401C14490860134800684B28E1DB0020F5
:104890001049086019E00F49096801F15A00FBF757
:1048A000CAFE0446FCF77CFF0A490968C1F15A00B8
:1048B000FBF7C1FE0446FCF737FF0A20FCF78BF834
:1048C00004480068401C03490860024800684B28FF
:1048D000E1DB10BD1C00002010B50020214908605C
:1048E00019E02049096801F15A00FBF7A4FE0446CB
:1048F000FCF738FF1B490968C1F15A00FBF79BFE22
:104900000446FCF7F3FE0A20FCF765F8154800683A
:10491000401C14490860134800684B28E1DB002064
:104920001049086019E00F49096801F15A00FBF7C6
:1049300082FE0446FCF7F8FE0A490968C1F15A00F4
:10494000FBF779FE0446FCF72BFF0A20FCF743F83F
:1049500004480068401C03490860024800684B286E
:10496000E1DB10BD1C00002070B50446302C00D1E6
:1049700070BDFCF777FE54490870FCF783FE53497D
:104980000870FCF78FFE52490870FCF79BFE5149F6
:10499000087086E04C4800785A280CDD4A480078B8
:1049A000401E4949087008460078FBF74DFE054651
:1049B000FCF79CFE0FE0444800785A280BDA424886
:1049C0000078401C4049087008460078FBF73CFE20
:1049D0000546FCF78BFE3E4800785A280CDD3C4823
:1049E0000078401E3A49087008460078FBF72CFE14
:1049F0000546FCF7B7FE0FE0354800785A280BDA79
:104A000033480078401C3249087008460078FBF7AC
:104A10001BFE0546FCF7A6FE2C4800785A280CDD44
:104A20002A480078401E2949087008460078FBF79C
:104A30000BFE0546FCF778FE0FE0244800785A2864
:104A40000BDA22480078401C20490870084600789C
:104A5000FBF7FAFD0546FCF767FE1E4800785A286A
:104A60000CDD1C480078401E1A4908700846007882
:104A7000FBF7EAFD0546FCF793FE0FE015480078CA
:104A80005A280BDA13480078401C1249087008466F
:104A90000078FBF7D9FD0546FCF782FE0A20FBF7FC
:104AA0009AFF094800785A287FF474AF08480078C4
:104AB0005A28F9D1054800785A28F5D105480078D8
:104AC0005A28F1D100BF53E7280000202900002018
:104AD0002A0000202B00002010B50848FCF706FE35
:104AE0000648FCF721FE0548FCF73CFE0348FCF7AE
:104AF00057FE4FF4FA70FBF76EFF10BD0000B44292
:104B000010B500204349086019E04249096801F1E5
:104B10005A00FBF790FD0446FCF706FE3D49096884
:104B2000C1F15A00FBF787FD0446FCF739FE05206A
:104B3000FBF751FF37480068401C3649086035488C
:104B400000684128E1DB00203249086019E0314962
:104B50000968C1F15A00FBF76EFD0446FCF7C6FD7B
:104B60002C49096801F15A00FBF765FD0446FCF782
:104B7000F9FD0520FBF72FFF26480068401C25495A
:104B80000860244800681428E1DB4FF47A70FBF7D2
:104B900022FF00201F49086010E01E49096801F14A
:104BA0004600FBF748FD0446FCF7A0FD0420FBF798
:104BB00012FF18480068401C164908601548006834
:104BC0003C28EADB4FF47A70FBF705FF1248FCF74C
:104BD0008DFD4FF4FA70FBF7FEFE1048FCF786FDE2
:104BE0004FF4FA70FBF7F7FE0B48FCF77FFD4FF42C
:104BF000FA70FBF7F0FE0948FCF778FD4FF4FA7005
:104C0000FBF7E9FE0648FCF771FD0520FBF7E3FE24
:104C100010BD00001C0000200000344300000243CF
:104C200000008C4210B51248FCF79CFD1048FCF7C0
:104C30007BFDC820FBF7CFFE0E48FCF793FD0D4827
:104C4000FCF772FDC820FBF7C6FE0B48FCF74EFDD3
:104C50000948FCF7A5FDC820FBF7BDFE0548FCF799
:104C600045FD0448FCF79CFDC820FBF7B4FE10BDD1
:104C70000000A0410000B4420000204300000000FA
:104C8000000000000000000000000000000000F82C
:104C900000000000000000333000000000160E008D
:104CA000160E0000000000000000000040C0784028
:104CB000C0784000043F04043F040400007088FCF6
:104CC00008300000001820FF211E0000F008F0004E
:104CD000E018000000211C031E211E0000F00888BF
:104CE000700000001E212324192721100000001647
:104CF0000E0000000000000000000000000000E0C6
:104D000018040200000000071820400000020418E8
:104D1000E00000000040201807000000404080F044
:104D2000804040000202010F01020200000000F07A
:104D3000000000000101011F01010100000000004E
:104D40000000000000B07000000000000000000043
:104D5000000000000001010101010101000000004C
:104D600000000000003030000000000000000000E3
:104D700080601804006018060100000000E01008C0
:104D80000810E000000F102020100F00001010F895
:104D9000000000000020203F2020000000700808D4
:104DA0000888700000302824222130000030088854
:104DB000884830000018202020110E000000C0207C
:104DC00010F8000000070424243F240000F808889D
:104DD000880808000019212020110E0000E010882A
:104DE00088180000000F112020110E00003808085C
:104DF000C83808000000003F00000000007088086C
:104E000008887000001C222121221C0000E01008EC
:104E10000810E0000000312222110F00000000C045
:104E2000C00000000000003030000000000000C0A2
:104E3000C0000000000080B0700000000000804052
:104E400020100800000102040810200040404040EB
:104E5000404040000404040404040400000810203E
:104E60004080000000201008040201000070480883
:104E70000808F0000000003036010000C030C828EB
:104E8000E810E0000718272423140B000000C038A6
:104E9000E0000000203C23020227382008F8888820
:104EA00088700000203F202020110E00C03008082C
:104EB00008083800071820202010080008F8080803
:104EC0000810E000203F202020100F0008F88888FC
:104ED000E8081000203F20202320180008F88888C8
:104EE000E8081000203F200003000000C030080840
:104EF0000838000007182020221E020008F80800C9
:104F00000008F808203F210101213F20000808F88F
:104F1000080800000020203F2020000000000808B2
:104F2000F8080800C08080807F00000008F888C072
:104F300028180800203F20012638200008F8080023
:104F400000000000203F20202020300008F8F8005A
:104F5000F8F80800203F003F003F200008F830C06C
:104F60000008F808203F200007183F00E01008085C
:104F70000810E0000F10202020100F0008F808088B
:104F80000808F000203F210101010000E01008089E
:104F90000810E0000F18242438504F0008F88888C3
:104FA00088887000203F2000030C302000708808A3
:104FB000080838000038202121221C00180808F8B1
:104FC000080818000000203F2000000008F8080032
:104FD0000008F808001F202020201F000878880003
:104FE00000C83808000007380E010000F80800F873
:104FF0000008F800033C0700073C0300081868801D
:105000008068180820302C03032C30200838C80092
:10501000C83808000000203F2000000010080808E1
:10502000C83808002038262120201800000000FE83
:10503000020202000000007F40404000000C30C02F
:1050400000000000000000010638C000000202025B
:10505000FE000000004040407F00000000201008DB
:105060000408102000000000000000000000000004
:105070000000000080808080808080800002040822
:105080000000000000000000000000000000808020
:10509000808000000019242222223F2008F800808E
:1050A00080000000003F112020110E000000008051
:1050B00080800000000E11202020110000000080E0
:1050C0008088F800000E112020103F200000808012
:1050D00080800000001F222222221300008080F026
:1050E000888888180020203F202000000000808051
:1050F00080808000006B94949493600008F8008096
:1051000080800000203F210000203F2000809898F0
:10511000000000000020203F202000000000008050
:105120009898000000C08080807F000008F8000090
:1051300080808000203F24022D302000000808F8E5
:10514000000000000020203F2020000080808080A0
:1051500080808000203F20003F20003F00808000B2
:105160008080000000203F2100203F200000808040
:1051700080800000001F202020201F0080800080F1
:105180008000000080FFA12020110E0000000080A0
:1051900080808000000E112020A0FF808080800091
:1051A0008080800020203F212000010000008080BE
:1051B000808080000033242424241900008080E0B3
:1051C000808000000000001F202000008080000080
:1051D00000808000001F202020103F208080800061
:1051E0000080808000010E30080601008080008071
:1051F000008080800F300C030C300F000080800096
:10520000808080000020312E0E31200080808000C0
:105210000080808080818E70180601000080808070
:10522000808080000021302C22213000000000000E
:10523000807C020200000000003F404000000000AF
:10524000FF00000000000000FF0000000002027CE0
:10525000800000000040403F00000000008040400F
:10526000800000800000000000010100000000003C
:1052700000000000002F00000000070007000014DD
:105280007F147F1400242A7F2A12002313086462EB
:1052900000364955225000000007000000001C2283
:1052A0004100000041221C000014083E08140008C0
:1052B000083E0808000000A0600000080808080870
:1052C000000060600000002010080402003E514908
:1052D000453E0000427F40000042615149460021A6
:1052E00041454B31001814127F10002745454539C0
:1052F000003C4A494930000171090503003649491B
:10530000493600064949291E0000363600000000D3
:10531000563600000008142241000014141414141E
:10532000000041221408000201510906003E4955BF
:10533000592E007C1211127C007F49494936003EEB
:1053400041414122007F4141221C007F494949419E
:10535000007F09090901003E4149497A007F080898
:10536000087F0000417F4100002040413F01007F55
:1053700008142241007F40404040007F020C027F21
:10538000007F0408107F003E4141413E007F090933
:105390000906003E4151215E007F09192946004659
:1053A000494949310001017F0101003F4040403F30
:1053B000001F2040201F003F4038403F006314087A
:1053C0001463000708700807006151494543000055
:1053D0007F414100000204081020000041417F008D
:1053E000000402010204004040404040000001026D
:1053F0000400002054545478007F48444438003856
:105400004444442000384444487F003854545418DD
:1054100000087E0901020018A4A4A47C007F0804EF
:1054200004780000447D4000004080847D00007FBF
:10543000102844000000417F4000007C04180478DC
:10544000007C0804047800384444443800FC2424D8
:1054500024180018242418FC007C080404080048C0
:105460005454542000043F444020003C4040207CE1
:10547000001C2040201C003C4030403C00442810D0
:105480002844001CA0A0A07C004464544C440000AC
:10549000087F41000000007F00000000417F0800FD
:1054A000000804081008A3AC000000000000000081
:1054B000000000000000000000000058380000005C
:1054C000000000000000000000A1A3000000000098
:1054D0000000000000000000000000000000182490
:1054E000241800000000000000000000C4E30000D9
:1054F0008060F8074020180F08C808082818000125
:105500000000FF00100C0340807F0001061800BA65
:10551000C3001010F01F10F000808282E2928A8691
:105520008000402215081661000040807F000000C6
:105530000000CAC000202020FE2020FF202020FFE5
:1055400020202020000000007F4040474444444782
:105550004040400000BDE700000000FE929292FE35
:10556000929292FE0000000008080484621E01006E
:1055700001FE020404080800A3A100000000FE00D0
:1055800000000000000000000000000000003300E8
:105590000000000000000000000000BFAA008082A0
:1055A0008282FE8282828282FE82828280000080EB
:1055B00040300F0000000000FF0000000000D0C4D9
:1055C000000000800000E00204180000004080009D
:1055D00000100C0300003F40404040407800010EA6
:1055E00000D6B500008060F80704E4A4A4BFA4A41A
:1055F000E4040000010000FF40407F4A4A4A4A4A52
:105600007F4040003A000000000000000000000061
:10561000000000000000000000363600000000001E
:1056200000000000000000CCE500008060F80710DA
:105630001010D0FFD01010100000010000FF100863
:10564000040B08FF080B04081000C1A6000010108E
:10565000101010FF1010101010F00000000080401B
:105660002018060100204080403F0000000000009C
:10567000FF0101013109090909897101010101FFD6
:10568000FF8080808080809681808080808080FF05
:10569000FF01818181FD8991A1C1FD81818101FF8E
:1056A000FF808080809F888482819F80808080FFAF
:1056B00000000000000000000000000000000000EA
:1056C00000000000000000000000000000000000DA
:1056D00000000000000000000000000000000000CA
:1056E00000000000000000000000000000000000BA
:1056F00000000000000000000000000000000000AA
:105700000000000000000000000000000000000099
:105710000000000000000000000000000000000089
:105720000000000000000000000000000000000079
:105730000000000000000000000000000000000069
:105740000000000000000000000000000000808059
:1057500080000000000000000000000000000000C9
:105760000000000000000000000000000000000039
:105770000000000000000000000000000000000029
:105780000000000000000000000000000000000019
:105790008080800000000000000000000000000089
:1057A00000000000000000000000000000000000F9
:1057B00000000000000000000000000000000000E9
:1057C000000000000000000000F0F8FEFFFFFFFFF7
:1057D000FFFFFFFEF8F000000000000000000000E6
:1057E00000000000000000000000000000000000B9
:1057F00000000000000000000000000000000000A9
:105800000000000000000000000000F0F8FEFFFFB4
:10581000FFFFFFFFFFFEF8F00000000000000000A7
:105820000000000000000000000000000000000078
:105830000000000000000000000000000000000068
:10584000000000000000000000FFFFFFFFFFFFFF5F
:10585000FFFFFFFFFFFF000000000000000000004E
:105860000000000000000000000000000000000038
:105870000000000000000000000000000000000028
:105880000000000000000000000000FFFFFFFFFF1D
:10589000FFFFFFFFFFFFFFFF000000000000000010
:1058A00000000000000000000000000000000000F8
:1058B00000000000000000000000000000000000E8
:1058C000000000000000000000FFFFFFFFFFFFFFDF
:1058D000FFFFFFFFFFFF00000000000000000000CE
:1058E00000000000000000000000000000000000B8
:1058F00000000000000000000000000000000000A8
:105900000000000000000000000000FFFFFFFFFF9C
:10591000FFFFFFFFFFFFFFFF00000000000000008F
:105920000000000000000000000000000000000077
:105930000000000000000000000000000000000067
:105940000000000000000000001F3FFFFFFFFFFFFE
:10595000FFFFFFFF3F1F00000000000000000000ED
:105960000000000000000000000000000000000037
:105970000000000000000000000000000000000027
:1059800000000000000000000000001F3FFFFFFFBC
:10599000FFFFFFFFFFFF3F1F0000000000000000AF
:1059A00000000000000000000000000000000000F7
:1059B00000000000000000000000000000000000E7
:1059C00000000000000000000000000001010303CF
:1059D00003010100000000000000000000000000C2
:1059E00000000000000000000000000000000000B7
:1059F00000000000000000000000000000000000A7
:105A00000000000000000000000000000000010194
:105A1000030303010100000000000000000000007B
:105A20000000000000000000000000000000000076
:105A30000000000000000000000000000000000066
:105A40000000000000000000000000000000000056
:105A50000000000000000000000000000000000046
:105A60000000000000000000000000000000000036
:105A70000000000000000000000000000000000026
:105A80000000000000000000000000000000000016
:105A90000000000000000000000000000000000006
:105AA00000000000000000000000000000000000F6
:105AB00000000000000000000000000000000000E6
:105AC00000000000000000000000000000000000D6
:105AD00000000000000000000000000000000000C6
